:020000040800F2
:1000000000000120C5020008CD020008D10200084E
:1000100045030008490300089103000800000000A0
:10002000000000000000000000000000D9030008EC
:10003000DD03000800000000E1030008E5030008FC
:10004000F5030008F5030008F5030008F5030008B0
:10005000F5030008F5030008F5030008F5030008A0
:10006000F5030008F5030008F5030008F503000890
:10007000F5030008F5030008F5030008F503000880
:10008000F5030008F5030008F50300080000000070
:10009000000000000000000000000000F503000860
:1000A000F5030008F5030008F5030008F503000850
:1000B000F5030008F5030008F5030008F503000840
:1000C000F5030008F5030008F5030008F503000830
:1000D000F5030008F5030008F50300080000000020
:1000E000F5030008F5030008F50300080000000010
:1000F000000000000000000000000000F503000800
:1001000000000000F5030008F5030008F5030008EF
:1001100000000000000000000000000000000000DF
:10012000F5030008F5030008F5030008F5030008CF
:10013000F5030008000000000000000000000000BF
:10014000000000000000000000000000F5030008AF
:10015000F5030008F5030008F5030008F50300089F
:10016000F5030008F503000800000000000000008F
:10017000000000000000000000000000000000007F
:1001800000000000F503000800000000000000006F
:10019000F503000800B583B000F0BCF9384B394ACC
:1001A0001360394A136039490CE00A684B6801F161
:1001B0000C04886803E01168196004330432984223
:1001C000F9D82146324B9942EFD32E4B1A68314B66
:1001D0009A4204D12C4B1A682F4B9A4200D0FEE76A
:1001E000274B2E4A13602E4A13602E4B0AE0194605
:1001F00051F8082B5B6802E00020106004329A423C
:10020000FAD30B46284A9342F1D3244B1B6813B907
:10021000234B1B6803B1FEE700F088F9694601A88B
:1002200000F022F9214C224B1C1BA410002504E0F5
:100230001E4B53F8253098470135AC42F8DC1D4C75
:100240001D4B1C1BA410002504E01A4B53F825304D
:1002500098470135AC42F8DC0099019800F09CFD0C
:100260000546164C164B1C1BA41004E0013C134B16
:1002700053F824309847002CF8DC284600F0D0F8DA
:10028000BABADECA0000002074000020F80300089B
:100290001004000878563412325476987800002002
:1002A00010010020100400082004000820040008A9
:1002B000200400082004000820040008200400088E
:1002C0002004000808B5FFF765FF00BF00BEFEE789
:1002D0001EF0040F0CBFEFF30880EFF309807146A6
:1002E000414A10472DE9F04182B004468846134B3D
:1002F0005E6B9F6B9D6A1B6B13F0020F0DD00F4B53
:10030000DB6A002B09DA4BF6AB6100F08BF920B108
:100310004FF00042094BDA620CE0094800F0ACF8FB
:10032000CDF800803B4632462946204600F002F9CF
:1003300000BEFEE702B0BDE8F08100BF00ED00E0C6
:100340001422000800BEFEE71EF0040F0CBFEFF3FE
:100350000880EFF309807146244A10472DE9F041E7
:1003600082B004468846084B5E6B9F6B9D6A0748C7
:1003700000F082F8CDF800803B4632462946204600
:1003800000F0D8F800BEFEE700ED00E024220008EF
:100390001EF0040F0CBFEFF30880EFF309807146E5
:1003A000134A10472DE9F04182B004468846084BB5
:1003B0005E6B9F6B9D6A074800F05EF8CDF8008089
:1003C0003B4632462946204600F0B4F800BEFEE720
:1003D00000ED00E03022000800BEFEE700BEFEE7B0
:1003E00000BEFEE770470000E50200085D0300085C
:0803F000A503000800BEFEE7B2
:1003F80008230008000000207800002008230008D7
:1004080000000010000000107800002014010020F7
:080418000000001000000010BC
:10042000FEE700BF08B50D4B1B6813B90C4A0B4B18
:100430001A600A4B1A68C31C23F0030313440949CA
:100440008B4206D901F072F90C2303604FF0FF30A4
:1004500008BD02490B60104608BD00BF7C000020AB
:100460001401002000FC002001230360014B0B60FD
:10047000704700BF040000200FB400B583B004AB88
:1004800053F8042B01938021064801F0D7F9002886
:1004900003DD0146034800F039F803B05DF804EBD2
:1004A00004B07047840000202DE9F04385B0044675
:1004B0000F46435613BB042528462146ABBE0446CF
:1004C0001FE03546102E28BF1025002306E014F942
:1004D000011B04AA1A4402F8101C0133AB42F6D3E4
:1004E00004AA1344002203F8102CE9464FF0040834
:1004F00040464946ABBE8046761B00E00E46002EC5
:10050000DFD1384605B0BDE8F08300BF08B5FFF77E
:10051000CBFF08BD08B500F095F8024B024A9A607F
:1005200008BD00BF00ED00E00000000808B500F0C5
:10053000A9F808BDF8B504460D4617461E462648DC
:10054000FFF79AFF21682548FFF796FF6168244866
:10055000FFF792FFA1682348FFF78EFFE16822486A
:10056000FFF78AFF21692148FFF786FF616920486C
:10057000FFF782FFA1691F48FFF77EFFE1691E4870
:10058000FFF77AFF1D48FFF777FF29461C48FFF762
:1005900073FF1C4CE16A1C48FFF76EFF216B1B4880
:1005A000FFF76AFFE16B1A48FFF766FF15F0800F4F
:1005B00003D039461748FFF75FFF15F4004F03D00B
:1005C00031461548FFF758FF1448FFF755FF0699C5
:1005D0001348FFF751FFF8BDF82000080821000874
:1005E00018210008282100083821000848210008A7
:1005F0005821000868210008782100088821000897
:100600009421000800ED00E0A4210008B4210008B6
:10061000C4210008D4210008E4210008F4210008C6
:10062000FC21000883691A888A4207D10268033ACC
:10063000012A05D8023383610120704700207047EA
:10064000002070470C4B1A6842F001021A6000212A
:1006500099601A6822F0847222F480321A60074A84
:100660005A601A6822F480221A60D9604FF0006242
:10067000034B9A60704700BF0038024010300024DE
:1006800000ED00E0234B9B6803F00C03042B07D024
:10069000082B0AD0002B2FD11F4A204B1A602EE0C6
:1006A00046F2A8121D4B1A6029E01A4B5A685B6883
:1006B00003F03F0312F4800F0AD046F2A812B2FBF7
:1006C000F3F2144B5B68C3F3881303FB02F208E0F8
:1006D000114AB2FBF3F30F4A5168C1F3881101FBD1
:1006E00003F20C4B5B68C3F3014301335B00B2FBC5
:1006F000F3F30A4A136002E0074A084B1A60054BFD
:100700009B68C3F30313064AD15C044A1368CB40C9
:1007100013607047003802400024F4000C000020F1
:10072000402200080368490003228A4023EA0203AA
:10073000012202FA01F10B43036070478368826073
:10074000704700BF03684900032202FA01F123EA5F
:1007500001030360704700BF4368012202FA01F100
:1007600023EA01030B434360704700BFC36849009D
:1007700003228A4023EA0203022202FA01F10B4318
:10078000C360704703684900032202FA01F123EABB
:1007900001030B43036070474368012202FA01F131
:1007A00023EA01030B434360704700BFC36849005D
:1007B000032202FA01F123EA0103C360704700BF7C
:1007C0004368012202FA01F123EA01034360704702
:1007D00003684900032202FA01F123EA01030B43F3
:1007E00003607047F8B504460D461E460F2A00F216
:1007F000A680DFE802F008101820242C38444C585A
:10080000646C78848C98FFF79DFF29462046FFF79B
:10081000A3FF002794E0FFF795FF29462046FFF746
:10082000A5FF00278CE0FFF78DFF29462046FFF744
:10083000BDFF002784E0FFF7A5FF002780E0FFF75A
:1008400071FF29462046FFF7A7FF002778E0FFF752
:1008500069FF29462046FFF79FFF29462046FFF7FC
:100860007BFF00276CE0FFF75DFF29462046FFF77E
:1008700093FF29462046FFF779FF002760E0FFF746
:1008800051FF29462046FFF79BFF002758E0FFF75E
:1008900049FF29462046FFF793FF29462046FFF7E8
:1008A0005BFF00274CE0FFF73DFF29462046FFF79E
:1008B00087FF29462046FFF759FF002740E0FFF752
:1008C00087FF29462046FFF77BFF002738E0FFF728
:1008D0007FFF29462046FFF773FF29462046FFF792
:1008E0003BFF00272CE0FFF773FF29462046FFF768
:1008F00067FF29462046FFF739FF002720E0FFF772
:1009000067FF29462046FFF747FF002718E0FFF75B
:100910005FFF29462046FFF73FFF29462046FFF7A5
:100920001BFF00270CE0FFF753FF29462046FFF787
:1009300033FF29462046FFF719FF002700E0032771
:10094000324629462046FFF7F9FE3846F8BD00BF7B
:1009500083691AB110B4012A0AD012E0012202FA06
:1009600001F123EA01030B43002283611046704723
:100970001031012202FA01F123EA01030B430022A4
:1009800000E003228361104610BC70472DE9F04F50
:1009900085B0054611F0010F01D1002200E00122CF
:1009A00011F0020F02D14FF0000B01E04FF0010BEC
:1009B00011F0040F02D14FF0000A01E04FF0010ADC
:1009C00011F0080F02D14FF0000901E04FF00109CA
:1009D00011F0100F02D14FF0000801E04FF00108B4
:1009E00011F0200F02D10023019301E001230193B4
:1009F00011F0400F02D10023029301E00123029382
:100A000011F0800F02D10023039301E0012303932F
:100A10001B4E6F007B195C01344494F82410206A4B
:100A2000FFF796FF5A4694F82C10A06AFFF790FF44
:100A3000524694F83410206BFFF78AFF4A4694F828
:100A40003C10A06BFFF784FF424694F84410206CE2
:100A5000FFF77EFF019A94F84C10A06CFFF778FF27
:100A6000029A94F85410206DFFF772FF039A94F8DD
:100A70005C10A06DFFF76CFF05B0BDE8F08F00BF04
:100A8000502200080000000008B500F029FB0CA36C
:100A9000D3E9002300F052FB0BA3D3E9002300F0BD
:100AA0004DFB00F05DFD04E000BF10F1FF3041F1AF
:100AB000FF3150EA0103F7D108BD00BFAFF300805A
:100AC0007B14AE47E17AD43F295C8FC2F5683D4084
:100AD0002DE9F04105468846144E47003B185C015D
:100AE00034440022217D2069FFF732FF0022217B60
:100AF000A068FFF72DFF41462846FFF747FFA4698E
:100B00003D446B0133441D7F012229462046FFF7F7
:100B10001FFF02200021FFF7B7FF002229462046D1
:100B2000FFF716FF0120BDE8F08100BF502200084A
:100B30002DE9F84304468946154E47003B185D01F0
:100B4000354495F81480012241462869FFF700FFDB
:100B500000224146A868FFF7FBFE49462046FFF702
:100B600015FFAD693C44630133441C7F01222146DB
:100B70002846FFF7EDFE03200021FFF785FF002246
:100B800021462846FFF7E4FE0120BDE8F88300BFB8
:100B900050220008F8B50546304F460033185C0176
:100BA0003C4402230722217FA069FFF71BFE02239A
:100BB0000722217BA068FFF715FE02230722217D73
:100BC0002069FFF70FFE0223072294F82410206A01
:100BD000FFF708FE0223072294F82C10A06AFFF703
:100BE00001FE0223072294F83410206BFFF7FAFD70
:100BF0000223072294F83C10A06BFFF7F3FD0223B9
:100C0000072294F84410206CFFF7ECFD0223072222
:100C100094F84C10A06CFFF7E5FD0223072294F82E
:100C20005410206DFFF7DEFD0223072294F85C10BC
:100C3000A06DFFF7D7FD28200021FFF725FF1E211B
:100C40002846FFF745FF0C212846FFF741FF012109
:100C50002846FFF73DFF0120F8BD00BF50220008E5
:100C600070B506460D46002405E0C9B23046FFF7D0
:100C70005FFF0134E4B229570029F6D1012070BD8D
:100C800010B582B0044608460A22694600F06BFDA2
:100C900069462046FFF7E4FF012002B010BD00BF07
:100CA000074A136843F41023136001E0044B1B68E8
:100CB000034B1B6813F4003FF8D00020704700BFBF
:100CC00000380240334B1B6808295FD8DFE801F089
:100CD0000F19232D37414B550500012802D143F44C
:100CE000800353E0012851D123F480034EE0012812
:100CF00002D143F0010349E0012847D123F0010369
:100D000044E0012802D143F002033FE001283DD135
:100D100023F002033AE0012802D143F0040335E056
:100D2000012833D123F0040330E0012802D143F03D
:100D300008032BE0012829D123F0080326E001282D
:100D400002D143F0100321E001281FD123F010034A
:100D50001CE0012802D143F0200317E0012815D13F
:100D600023F0800312E0012802D143F480530DE008
:100D700001280BD123F4805308E0012802D143F469
:100D8000001303E0012801D123F40013014A13608A
:100D9000002070473038024008B5FFF781FF00217E
:100DA0000120FFF78FFF01210846FFF78BFF00208E
:100DB000FFF7F0FE42F228310020FFF761FF42F218
:100DC00028310020FFF75CFFF9E700BF81F0004108
:100DD00002E000BF83F0004330B54FEA41044FEA20
:100DE000430594EA050F08BF90EA020F1FBF54EABB
:100DF000000C55EA020C7FEA645C7FEA655C00F057
:100E0000E2804FEA5454D4EB5555B8BF6D420CDD27
:100E10002C4480EA020281EA030382EA000083EAAA
:100E2000010180EA020281EA0303362D88BF30BD4A
:100E300011F0004F4FEA01314FF4801C4CEA1131A0
:100E400002D0404261EB410113F0004F4FEA0333FF
:100E50004CEA133302D0524263EB430394EA050F8A
:100E600000F0A780A4F10104D5F1200E0DDB02FAF9
:100E70000EFC22FA05F2801841F1000103FA0EF28D
:100E8000801843FA05F359410EE0A5F120050EF153
:100E9000200E012A03FA0EFC28BF4CF0020C43FA84
:100EA00005F3C01851EBE37101F0004507D54FF091
:100EB000000EDCF1000C7EEB00006EEB0101B1F5E1
:100EC000801F1BD3B1F5001F0CD349085FEA300027
:100ED0004FEA3C0C04F101044FEA445212F5800F32
:100EE00080F09A80BCF1004F08BF5FEA500C50F1CF
:100EF000000041EB045141EA050130BD5FEA4C0CB2
:100F0000404141EB010111F4801FA4F10104E9D13A
:100F100091F0000F04BF01460020B1FA81F308BF31
:100F20002033A3F10B03B3F120020CDA0C3208DDFD
:100F300002F1140CC2F10C0201FA0CF021FA02F1D8
:100F40000CE002F11402D8BFC2F1200C01FA02F148
:100F500020FA0CFCDCBF41EA0C019040E41AA2BF6D
:100F600001EB0451294330BD6FEA04041F3C1CDA35
:100F70000C340EDC04F11404C4F1200220FA04F055
:100F800001FA02F340EA030021FA04F345EA0301FF
:100F900030BDC4F10C04C4F1200220FA02F001FAC1
:100FA00004F340EA0300294630BD21FA04F0294643
:100FB00030BD94F0000F83F4801306BF81F48011DC
:100FC0000134013D4EE77FEA645C18BF7FEA655C4F
:100FD00029D094EA050F08BF90EA020F05D054EA21
:100FE000000C04BF1946104630BD91EA030F1EBF26
:100FF0000021002030BD5FEA545C05D1400049412A
:1010000028BF41F0004130BD14F580043CBF01F51C
:10101000801130BD01F0004545F0FE4141F4700102
:101020004FF0000030BD7FEA645C1ABF19461046DD
:101030007FEA655C1CBF0B46024650EA013406BFDE
:1010400052EA033591EA030F41F4002130BD00BF9D
:1010500090F0000F04BF0021704730B54FF480645A
:1010600004F132044FF000054FF0000150E700BFDB
:1010700090F0000F04BF0021704730B54FF480643A
:1010800004F1320410F0004548BF40424FF0000127
:101090003EE700BF42004FEAE2014FEA31014FEA6A
:1010A00002701FBF12F07F4393F07F4F81F06051B9
:1010B000704792F0000F14BF93F07F4F704730B528
:1010C0004FF4607401F0004521F0004120E700BFBB
:1010D00050EA010208BF704730B54FF000050AE042
:1010E00050EA010208BF704730B511F0004502D543
:1010F000404261EB41014FF4806404F132045FEA45
:10110000915C3FF4DCAE4FF003025FEADC0C18BFE9
:1011100003325FEADC0C18BF033202EBDC02C2F1DF
:10112000200300FA03FC20FA02F001FA03FE40EA71
:101130000E0021FA02F11444C1E600BF70B54FF071
:10114000FF0C4CF4E06C1CEA11541DBF1CEA135553
:1011500094EA0C0F95EA0C0F00F0DEF82C4481EABB
:10116000030621EA4C5123EA4C5350EA013518BFDB
:1011700052EA033541F4801143F4801338D0A0FBC8
:1011800002CE4FF00005E1FB02E506F00042E0FB75
:1011900003E54FF00006E1FB03569CF0000F18BF7B
:1011A0004EF0010EA4F1FF04B6F5007F64F5407423
:1011B00004D25FEA4E0E6D4146EB060642EAC621B6
:1011C00041EA55514FEAC52040EA5E504FEACE2E23
:1011D000B4F1FD0C88BFBCF5E06F1ED8BEF1004F26
:1011E00008BF5FEA500E50F1000041EB045170BDA2
:1011F00006F0004646EA010140EA020081EA0301E6
:10120000B4EB5C04C2BFD4EB0C0541EA045170BDE1
:1012100041F480114FF0000E013C00F3AB8014F15B
:10122000360FDEBF002001F0004170BDC4F10004A4
:10123000203C35DA0C341BDC04F11404C4F1200525
:1012400000FA05F320FA04F001FA05F240EA020080
:1012500001F0004221F0004110EBD37021FA04F6B6
:1012600042EB06015EEA430E08BF20EAD37070BD70
:10127000C4F10C04C4F1200500FA04F320FA05F0CF
:1012800001FA04F240EA020001F0004110EBD370D1
:1012900041F100015EEA430E08BF20EAD37070BD41
:1012A000C4F1200500FA05F24EEA020E20FA04F31A
:1012B00001FA05F243EA020321FA04F001F00041C9
:1012C00021FA04F220EA020000EBD3705EEA430E3A
:1012D00008BF20EAD37070BD94F0000F0FD101F069
:1012E0000046400041EB010111F4801F08BF013CA2
:1012F000F7D041EA060195F0000F18BF704703F0E0
:101300000046520043EB030313F4801F08BF013D66
:10131000F7D043EA0603704794EA0C0F0CEA135522
:1013200018BF95EA0C0F0CD050EA410618BF52EADC
:101330004306D1D181EA030101F000414FF00000E2
:1013400070BD50EA410606BF1046194652EA4306F0
:1013500019D094EA0C0F02D150EA013613D195EA64
:101360000C0F05D152EA03361CBF104619460AD1AC
:1013700081EA030101F0004141F0FE4141F47001B6
:101380004FF0000070BD41F0FE4141F4780170BDA6
:1013900070B54FF0FF0C4CF4E06C1CEA11541DBF0B
:1013A0001CEA135594EA0C0F95EA0C0F00F0A7F80D
:1013B000A4EB050481EA030E52EA03354FEA01313A
:1013C00000F088804FEA03334FF0805545EA13134D
:1013D00043EA12634FEA022245EA111545EA106515
:1013E0004FEA00260EF000419D4208BF964244F1AC
:1013F000FD0404F5407402D25B084FEA3202B61ACB
:1014000065EB03055B084FEA32024FF480104FF49E
:10141000002CB6EB020E75EB030E22BFB61A754612
:1014200040EA0C005B084FEA3202B6EB020E75EBA5
:10143000030E22BFB61A754640EA5C005B084FEA0D
:101440003202B6EB020E75EB030E22BFB61A7546DA
:1014500040EA9C005B084FEA3202B6EB020E75EBE5
:10146000030E22BFB61A754640EADC0055EA060EA6
:1014700018D04FEA051545EA16754FEA06164FEAE9
:10148000C30343EA52734FEAC2025FEA1C1CC0D195
:1014900011F4801F0BD141EA00014FF000004FF022
:1014A000004CB6E711F4801F04BF01430020B4F1E3
:1014B000FD0C88BFBCF5E06F3FF6AFAEB5EB030C9B
:1014C00004BFB6EB020C5FEA500C50F1000041EB98
:1014D000045170BD0EF0004E4EEA113114EB5C0465
:1014E000C2BFD4EB0C0541EA045170BD41F4801138
:1014F0004FF0000E013C90E645EA060E8DE60CEA40
:10150000135594EA0C0F08BF95EA0C0F3FF43BAF5C
:1015100094EA0C0F0AD150EA01347FF434AF95EA13
:101520000C0F7FF425AF104619462CE795EA0C0FF7
:1015300006D152EA03353FF4FDAE1046194622E7C4
:1015400050EA410618BF52EA43067FF4C5AE50EA9E
:1015500041047FF40DAF52EA43057FF4EBAE12E78E
:1015600038B505460C46284621460022002300F0E7
:1015700095F828B928462146BDE8384000F00AB859
:10158000284604F1004100F005F8404261EB4101BA
:1015900038BD00BFD0B500220E4B06460F46FFF700
:1015A000CDFD00F0A3F80446FFF752FD00220A4BE0
:1015B000FFF7C4FD02460B4630463946FFF70AFCEA
:1015C00000F094F82346002242EA00021046194631
:1015D000D0BD00BF0000F03D0000F0414FF0FF3CE7
:1015E00006E000BF4FF0010C02E000BF4FF0010C1D
:1015F0004DF804CD4FEA410C7FEA6C5C4FEA430C96
:1016000018BF7FEA6C5C1BD001B050EA410C0CBFE4
:1016100052EA430C91EA030F02BF90EA020F002046
:10162000704710F1000F91EA030F58BF994208BFAD
:1016300090422CBFD8176FEAE37040F0010070476A
:101640004FEA410C7FEA6C5C02D150EA013C07D1C1
:101650004FEA430C7FEA6C5CD6D152EA033CD3D00C
:101660005DF8040B704700BF8446104662468C4606
:101670001946634600E000BF01B5FFF7B7FF002839
:1016800048BF10F1000F01BD4DF808EDFFF7F4FF62
:101690000CBF012000205DF808FB00BF4DF808EDED
:1016A000FFF7EAFF34BF012000205DF808FB00BF10
:1016B0004DF808EDFFF7E0FF94BF012000205DF832
:1016C00008FB00BF4DF808EDFFF7CEFF94BF0120E7
:1016D00000205DF808FB00BF4DF808EDFFF7C4FFE0
:1016E00034BF012000205DF808FB00BF4A0011D282
:1016F00012F5001211D20DD56FF47873B3EB62526C
:101700000ED44FEAC12343F0004343EA505323FA77
:1017100002F070474FF00000704750EA013002D1EC
:101720004FF0FF3070474FF000007047014B1868D2
:10173000704700BF70000020931E222B10B50C468E
:1017400002D90020087010BD0A2A06D1002804DA48
:101750002D230B704042012100E00021214400F0C4
:1017600005F8204610BDFFF7E7BF0000F0B51C4CA0
:101770008BB003460F466D4604F1200E2068616869
:101780002E4603C6083474453546F7D121793171A8
:10179000911E2068306022294FF0000001D9387076
:1017A0001CE07D1EB3FBF2F40AAE02FB143333449B
:1017B000411C13F8283C05F8013F23460CB10846AC
:1017C000F0E77C543A18C11A8B4206DAF95C1478B7
:1017D000FC5402F801190133F5E738460BB0F0BDAF
:1017E000B022000830B5141E05469BB0184604DA36
:1017F0008B232B604FF0FF301DE04FF40273ADF8E8
:101800000C3014BF04F1FF332346029305934FF6C7
:10181000FF7300910491ADF80E3002461E9B69469D
:10182000284600F073F8431CBCBF8B232B6014B117
:10183000009B00221A701BB030BD000007B500935A
:1018400013460A46014603480068FFF7CBFF03B082
:101850005DF804FB700000202DE9F0478E689E4281
:1018600082460C46914698463ED88A8912F4906F7B
:101870003AD0256809696F1A6569022305EB4505A9
:1018800095FBF3F57B1C43449D4238BF1D46530531
:101890000FD5294600F090FB064698B13A462169DB
:1018A00000F016FBA38923F4906343F08003A38127
:1018B00013E02A4600F0DEFB064670B92169504667
:1018C00000F02CFB0C23CAF80030A38943F040033E
:1018D000A3814FF0FF30BDE8F087266165613E448B
:1018E000ED1B2660A5604646464528BF4646324663
:1018F0004946206800F0F7FAA3689B1BA3602368A1
:101900001E4426600020BDE8F08700002DE9F04F5E
:101910009DB0804603938B891C060D4616460DD557
:101920000B695BB9402100F047FB2860286118B9BA
:101930000C23C8F80030CDE040236B6100230993ED
:1019400020238DF82930DFF89CB130238DF82A3020
:1019500037463C4614F8013B1BB9B7EB060910D0DB
:1019600003E0252BF9D02746F3E74B4632462946BC
:101970004046FFF771FF013000F0A780099B4B4400
:1019800009933B78002B00F0A08000234FF0FF323A
:1019900004930793059206938DF853301A9301260A
:1019A000052221784E4800F043FA671C049B38B1A9
:1019B0004B4A801A06FA00F0184304903C46EFE7C1
:1019C000D90644BF20228DF853201A0744BF2B228A
:1019D0008DF8532022782A2A03D0079A00210A2062
:1019E0000BE0039A111D12680391002A10DA52428B
:1019F00043F00200079204900BE0274601343B7845
:101A0000303B092B03D800FB02320121F5E701B17D
:101A100007923B782E2B1ED17B782A2B0AD1039B71
:101A20001A1D1B680392002BB8BF4FF0FF3302371B
:101A3000059310E000230593781C19460A240746F5
:101A400001303A78303A092A03D804FB01210123F6
:101A5000F5E703B1059103223978224800F0E8F94F
:101A600040B14023CBEB000003FA00F0049B184385
:101A70000490013739781C488DF8281006227E1C06
:101A800000F0D6F988B1194B33B9039B073323F023
:101A900007030833039314E003AB00932A46144B67
:101AA00004A94046AFF3008007E003AB00932A4649
:101AB0000F4B04A9404600F093F8B0F1FF3F824677
:101AC00003D0099B5344099342E7AB895B0601D4D9
:101AD000099801E04FF0FF301DB0BDE8F08F00BF66
:101AE000D5220008DB220008DF22000800000000E9
:101AF000591800082DE9F04791461F460A698B687E
:101B0000DDF820809342B8BF1346C9F8003091F841
:101B1000432006460C4612B10133C9F80030236851
:101B2000990642BFD9F800300233C9F80030256861
:101B300015F0060510D104F1190A07E001235246F9
:101B400039463046C04701301AD00135E368D9F82C
:101B500000209B1A9D42F1DB94F843302268003349
:101B600018BF012392060FD5E1185A1C302081F8C6
:101B70004300224494F8451082F84310023303E0F6
:101B80004FF0FF30BDE8F08704F14302394630469C
:101B9000C0470130F4D02268D9F80050E36802F061
:101BA0000602042A08BF5D1B2269A3680CBF25EA50
:101BB000E57500259342C4BF9B1AED184FF000094C
:101BC0001A344D4509D00123224639463046C047D4
:101BD0000130D5D009F10109F3E70020BDE8F08715
:101BE0002DE9F04317460A7E85B06E2A98460646D0
:101BF0000C460C9B01F1430E00F0AE8011D8632A15
:101C000022D009D8002A00F0BB80582A40F0CA80B0
:101C100081F84520834955E0642A1ED0692A1CD0EA
:101C2000C0E0732A00F0B08009D86F2A2ED0702A45
:101C300040F0B8800A6842F020020A603EE0752A4F
:101C400024D0782A3AD0ADE01A6801F14205111D7E
:101C50001960136884F84230A8E021681A6811F00E
:101C6000800F02D0111D196008E011F0400F02F141
:101C70000401196002D0B2F9003000E01368002BB3
:101C80003CDA2D225B4284F8432037E021681A6851
:101C900011F0800F02D0111D196007E011F0400F04
:101CA00002F10401196001D0138800E01368227E5C
:101CB0005C496F2A14BF0A2208221BE078225A4985
:101CC00084F845202268186812F0800F00F104059E
:101CD0001D6003D1550601D5038800E00368D007D5
:101CE00044BF42F0200222601BB9226822F0200289
:101CF00022601022002084F8430001E049490A22B2
:101D00006568A560002D08DB206820F004002060D5
:101D10002BB9002D7DD175460CE0002B79D075468E
:101D2000B3FBF2F002FB1033CB5C05F8013D034638
:101D30000028F5D1082A0BD12368DA0708D52369D2
:101D400062689A42DEBF302305F8013C05F1FF3599
:101D5000C5EB0E0323612EE008681A68496910F08C
:101D6000800F03D0101D1860136808E010F0400FBA
:101D700002F104001860136801D0198000E01960B6
:101D800000232361754616E01A68111D1960156855
:101D900062680021284600F04BF808B1401B6060E3
:101DA000636804E004F1420584F8422001232361C2
:101DB000002384F84330CDF800803B4603AA214637
:101DC0003046FFF797FE013002D14FF0FF3026E09A
:101DD00023692A4639463046C0470130F5D023688A
:101DE0009B0710D5002504F1190907E001234A4695
:101DF00039463046C0470130E7D00135E368039AE1
:101E00009B1A9D42F2DBE068039B9842B8BF1846DC
:101E100005E00B7884F8423004F142058AE705B00A
:101E2000BDE8F083E6220008F72200080000000069
:101E300001F0FF01102A2BDB10F0070F08D010F87B
:101E4000013B013A8B422DD010F0070F42B3F6D17F
:101E5000F0B441EA012141EA014122F007047FF098
:101E600000070023F0E80256083C85EA010586EAEF
:101E7000010685FA47F5A3FA87F586FA47F6A5FA2B
:101E800087F68EB9EED1F0BC01F0FF0102F0070237
:101E900032B110F8013B013A83EA010313B1F8D1E2
:101EA0000020704701387047002D06BF35460338C3
:101EB000073815F0010F07D1013015F4807F02BFFC
:101EC000013015F4C03F0130F0BC0138704700BF4D
:101ED00010B5431E0A44914204D011F8014B03F897
:101EE000014FF8E710BD884210B501EB020301D89D
:101EF000421E0BE09842FBD28118D21AD34204D082
:101F000013F8014D01F8014DF8E710BD994204D0D6
:101F100011F8014B02F8014FF8E710BD38B505463E
:101F2000002946D051F8043C0C1F002BB8BFE41820
:101F300000F0D6F81F4A1368114613B963601460A5
:101F400032E0A3420ED92268A018834204BF186869
:101F50005B68636004BF121822600C6024E0A24238
:101F600003D813465A68002AF9D118681918A142F3
:101F70000BD12168014458188242196014D11068AD
:101F800052685A60014419600EE002D90C232B609C
:101F90000AE021686018824204BF106852686260DB
:101FA00004BF091821605C602846BDE8384000F095
:101FB00098B838BD0801002070B5CD1C25F0030588
:101FC00008350C2D38BF0C25002D064601DBA94233
:101FD00002D90C23336046E000F082F8234B1C68E2
:101FE0001A462146A1B10B685B1B0ED40B2B03D9FB
:101FF0000B60CC18CD501EE08C420DBF63684B685F
:102000006360136018BF0C4615E00C464968E9E7A9
:10201000174C23681BB9304600F052F8206029465F
:10202000304600F04DF8431C18D0C41C24F00304C3
:10203000A0420DD12560304600F053F804F10B00AA
:10204000231D20F00700C31A0ED05A42E25070BD83
:10205000211A304600F034F80130EBD10C23336004
:10206000304600F03EF8002070BD00BF080100209F
:1020700004010020F8B5074615460E4621B9114661
:10208000BDE8F840FFF798BF1AB9FFF747FF2846A9
:10209000F8BD00F027F885420ED929463846FFF7EB
:1020A0008BFF044650B131462A46FFF711FF3146F7
:1020B0003846FFF733FF01E03046F8BD2046F8BD53
:1020C00038B5064C0023054608462360FEF7AAF9FA
:1020D000431C02D1236803B12B6038BD0C010020E2
:1020E0007047704751F8040C0028BEBF091851F81A
:1020F000043CC01804387047537461636B206672E7
:10210000616D653A0A000000205230203D202025F4
:102110003038580A00000000205231203D20202590
:102120003038580A00000000205232203D2020257F
:102130003038580A00000000205233203D2020256E
:102140003038580A0000000020523132203D20254E
:102150003038580A00000000204C52203D20202535
:102160003038580A00000000205043203D20202530
:102170003038580A0000000020505352203D2025DE
:102180003038580A000000004653522F4641523A58
:102190000A0000002043465352203D2020253038BD
:1021A000580A00002048465352203D202025303850
:1021B000580A00002044465352203D202025303844
:1021C000580A00002041465352203D202025303837
:1021D000580A0000204D4D464152203D2025303800
:1021E000580A00002042464152203D202025303828
:1021F000580A00004D6973630A000000204C522FFA
:102200004558435F52455455524E3D20253038586D
:102210000A0000005B486172644661756C745D0A77
:10222000000000005B4275734661756C745D0A00C6
:102230005B55736167654661756C745D0A000000EB
:102240000000000000000000010203040607080966
:1022500000000240010207000000024002020700E5
:1022600000000240030207000000024004020700D1
:1022700000040240000207000004024001020700BF
:1022800000040240020207000004024003020700AB
:102290000004024004020700000402400502070097
:1022A0000004024006020700000402400702070083
:1022B00030313233343536373839616263646566BC
:1022C0006768696A6B6C6D6E6F7071727374757626
:1022D0007778797A00232D302B2000686C4C0065CC
:1022E0006667454647003031323334353637383942
:1022F0004142434445460030313233343536373875
:08230000396162636465660047
:102308007856341280000020000000000024F400F9
:1023180000000000000000000000000000000000B5
:1023280000000000000000000000000000000000A5
:102338000000000000000000000000000000000095
:102348000000000000000000000000000000000085
:102358000000000000000000000000000000000075
:102368000000000000000000000000000000000065
:08237800100000203254769899
:040000050800019559
:00000001FF
